:03000300010A00EF
:10014F0075A0FE12016F12009A8F0AE50A60F7B4CC
:10015F0001F4050BE50BC3940240EBE4F50B80E6CD
:03000B000200FBF5
:0B00FB00C0E0C0D075D000C000C007FE
:10010600758A66758CFC0509E50970020508C394B5
:10011600E8E50894034029750800750900E50B70A9
:100126000DAFA07801EF08800123D8FDF5A0E50BFF
:10013600B4010DAFA07801EF08800103D8FDF5A04A
:09014600D007D000D0D0D0E03287
:10016F005389F0438901758A66758CFCC28DD28CD8
:07017F00D2A9D2AFC2B922E0
:10009A00E4F50C20B1137F14FE12018630B1FD7F06
:1000AA00147E00120186750C0120B0147F147E00A4
:1000BA0012018630B0FD7F147E00120186750C0293
:1000CA0020B2147F147E0012018630B2FD7F147EA6
:1000DA0000120186750C0320B3147F147E001201EE
:1000EA008630B3FD7F147E00120186750C04AF0CB6
:0100FA0022E3
:10018600EF1FAC0670011E4C600A7D027CEFDCFEA0
:04019600DDFC80EC20
:01019A002242
:0300000002000EED
:0C000E00787FE4F6D8FD75810C020055E7
:10001A0002014FE493A3F8E493A34003F68001F2AC
:10002A0008DFF48029E493A3F85407240CC8C333E7
:10003A00C4540F4420C8834004F456800146F6DFB6
:10004A00E4800B0102040810204080900003E47E43
:10005A00019360BCA3FF543F30E509541FFEE493AB
:10006A00A360010ECF54C025E060A840B8E493A372
:10007A00FAE493A3F8E493A3C8C582C8CAC583CA9D
:10008A00F0A3C8C582C8CAC583CADFE9DEE780BE55
:0100060000F9
:00000001FF
