:10003F0000000000000000003C4242463E013C42EE
:10004F00424A0C00007C92120C007C92120C007C35
:10005F0092120C00000000000000000000000000E1
:10000300E4F50A1200DFE4F508E508250990003F4E
:1000130093FD7C00AF0812009C0508E508C3940813
:1000230040E7050AE50AD3940A40DBE4F50A05092B
:0C003300E509D3942840CFE4F50980CA09
:1000BE00EF1FAC0670011E4C600A7D027CEFDCFE69
:0400CE00DDFC80ECE9
:0100D200220B
:02006F00AD07DB
:10007100E4FB74807E00A803088006CEA2E713CEBD
:1000810013D8F8FFEDF582EF558224FF92B4D2B672
:0A009100C2B60BBB08DCD2B5C2B545
:01009B002242
:0500DF00C2B6C2B5220B
:10009C00AA07AF0512006FAF027480A80708800290
:1000AC00C313D8FCF4F5807F017E001200BE75806E
:0200BC00FF2221
:030000000200D328
:0C00D300787FE4F6D8FD75810A02000376
:00000001FF
