:0D00F6000B0968656C6C6F776F72642000F9
:10008F001200CAE4F51474092514F8E6FF120104EE
:10009F000514E514C3940B40ED05087FE87E0312A9
:0400AF0000E180DF0D
:1000E100EF1FAC0670011E4C600A7D027CEFDCFE46
:0400F100DDFC80ECC6
:0100F50022E8
:1000B3005389F0438901758A66758CFCC28DD28C95
:0700C300D2A9D2AFC2B9229D
:1000CA0075984043878053890F438920758BF4754F
:0700DA008DF4C2ABD28E22AF
:080104008F993099FDC2992288
:03000000020003F8
:0C000300787FE4F6D8FD75811402004AF5
:10000F0002008FE493A3F8E493A34003F68001F278
:10001F0008DFF48029E493A3F85407240CC8C333F2
:10002F00C4540F4420C8834004F456800146F6DFC1
:10003F00E4800B01020408102040809000F6E47E5B
:10004F00019360BCA3FF543F30E509541FFEE493B6
:10005F00A360010ECF54C025E060A840B8E493A37D
:10006F00FAE493A3F8E493A3C8C582C8CAC583CAA8
:10007F00F0A3C8C582C8CAC583CADFE9DEE780BE60
:0101030000FB
:00000001FF
