:0D018F00120003E4FDFC7F011200B280FEAF
:0300230002011BBC
:10011B00C0E0C0F0C083C082C0D075D000C000C0AA
:10012B0001C002C003C004C005C006C00730980D53
:10013B00C298AF99EFFD7C007F011200B2D007D0BF
:10014B0006D005D004D003D002D001D000D0D0D03F
:08015B0082D083D0F0D0E03225
:10017A00EF1FAC0670011E4C600A7D027CEFDCFEAC
:04018A00DDFC80EC2C
:01018E00224E
:100163005389F0438901758A66758CFCC28DD28CE4
:07017300D2A9D2AFC2B922EC
:1000030075985043878053890F438920758BF47506
:0B0013008DF4C2ABD28ED2AFD2AC2273
:0801A9008F993099FDC29922E3
:0C019C000A083F065B4F666D7D077F6F11
:1000B200EF14B4080050549000C775F003A4C58330
:1000C20025F0C583730200DF0200E30200E70200AD
:1000D200EB0200EF0200F70200FF020107D2A48048
:1000E2000ED2A48012D2A48016D2A4801AC2A4D2A4
:1000F200A3D2A28016C2A4D2A3C2A2800EC2A4C25C
:10010200A3D2A28006C2A4C2A3C2A274082DF8E69A
:09011200F5807F017E0002017AF4
:03000000020026D5
:0C002600787FE4F6D8FD75811102006DB2
:1000320002018FE493A3F8E493A34003F68001F254
:1000420008DFF48029E493A3F85407240CC8C333CF
:10005200C4540F4420C8834004F456800146F6DF9E
:10006200E4800B010204081020408090019CE47E91
:10007200019360BCA3FF543F30E509541FFEE49393
:10008200A360010ECF54C025E060A840B8E493A35A
:10009200FAE493A3F8E493A3C8C582C8CAC583CA85
:1000A200F0A3C8C582C8CAC583CADFE9DEE780BE3D
:0101A8000056
:00000001FF
