:1001A7000A0C3F065B4F666D7D077F6F02080000F4
:0401B700020A000038
:10008F00EF14B4080050549000A475F003A4C58376
:10009F0025F0C583730200BC0200C00200C4020039
:1000AF00C80200CC0200D40200DC0200E4D2A4801B
:1000BF000ED2A48012D2A48016D2A4801AC2A4D2C7
:1000CF00A3D2A28016C2A4D2A3C2A2800EC2A4C27F
:1000DF00A3D2A28006C2A4C2A3C2A2740C2DF8E6BA
:0D00EF00F5807F017E001201BCE4F5802247
:10015D00AD09AC087F0112008FAD0BAC0A7F021206
:10016D00008F1200FC7516008F17E51764014516F8
:10017D0070DEE50B6409450A700F0509E50970028B
:10018D000508E4F50AF50B8008050BE50B70020573
:0A019D000A7F017E001201BC80B64B
:1000FC00E4F51820B1137F14FE1201BC30B1FD7F62
:10010C00147E001201BC75180120B0147F147E00FF
:10011C001201BC30B0FD7F147E001201BC751802B8
:10012C0020B2147F147E001201BC30B2FD7F147E0D
:10013C00001201BC75180320B3147F147E00120149
:10014C00BC30B3FD7F147E001201BC751804AF18CF
:01015C002280
:1001BC00EF1FAC0670011E4C600A7D027CEFDCFE6A
:0401CC00DDFC80ECEA
:0101D000220C
:03000000020003F8
:0C000300787FE4F6D8FD75811802004AF1
:10000F0002015DE493A3F8E493A34003F68001F2A9
:10001F0008DFF48029E493A3F85407240CC8C333F2
:10002F00C4540F4420C8834004F456800146F6DFC1
:10003F00E4800B01020408102040809001A7E47EA9
:10004F00019360BCA3FF543F30E509541FFEE493B6
:10005F00A360010ECF54C025E060A840B8E493A37D
:10006F00FAE493A3F8E493A3C8C582C8CAC583CAA8
:10007F00F0A3C8C582C8CAC583CADFE9DEE780BE60
:0101BB000043
:00000001FF
